{
  "contractName": "Hangman",
  "abi": [
    {
      "inputs": [],
      "stateMutability": "nonpayable",
      "type": "constructor"
    },
    {
      "anonymous": false,
      "inputs": [
        {
          "indexed": true,
          "internalType": "address",
          "name": "player",
          "type": "address"
        },
        {
          "indexed": false,
          "internalType": "bool",
          "name": "won",
          "type": "bool"
        }
      ],
      "name": "GameOver",
      "type": "event"
    },
    {
      "anonymous": false,
      "inputs": [
        {
          "indexed": true,
          "internalType": "address",
          "name": "player",
          "type": "address"
        },
        {
          "indexed": false,
          "internalType": "uint256",
          "name": "stake",
          "type": "uint256"
        }
      ],
      "name": "GameStarted",
      "type": "event"
    },
    {
      "anonymous": false,
      "inputs": [
        {
          "indexed": true,
          "internalType": "address",
          "name": "player",
          "type": "address"
        },
        {
          "indexed": false,
          "internalType": "bytes",
          "name": "letter",
          "type": "bytes"
        },
        {
          "indexed": false,
          "internalType": "bool",
          "name": "correct",
          "type": "bool"
        }
      ],
      "name": "LetterGuessed",
      "type": "event"
    },
    {
      "inputs": [],
      "name": "MAX_TRIES",
      "outputs": [
        {
          "internalType": "uint256",
          "name": "",
          "type": "uint256"
        }
      ],
      "stateMutability": "view",
      "type": "function",
      "constant": true
    },
    {
      "inputs": [],
      "name": "feePercentage",
      "outputs": [
        {
          "internalType": "uint256",
          "name": "",
          "type": "uint256"
        }
      ],
      "stateMutability": "view",
      "type": "function",
      "constant": true
    },
    {
      "inputs": [],
      "name": "owner",
      "outputs": [
        {
          "internalType": "address",
          "name": "",
          "type": "address"
        }
      ],
      "stateMutability": "view",
      "type": "function",
      "constant": true
    },
    {
      "inputs": [
        {
          "internalType": "uint256",
          "name": "stake",
          "type": "uint256"
        }
      ],
      "name": "startGame",
      "outputs": [],
      "stateMutability": "payable",
      "type": "function",
      "payable": true
    },
    {
      "inputs": [
        {
          "internalType": "bytes1",
          "name": "letter",
          "type": "bytes1"
        }
      ],
      "name": "guessLetter",
      "outputs": [],
      "stateMutability": "nonpayable",
      "type": "function"
    },
    {
      "inputs": [],
      "name": "getCurrentWordState",
      "outputs": [
        {
          "internalType": "string",
          "name": "",
          "type": "string"
        }
      ],
      "stateMutability": "view",
      "type": "function",
      "constant": true
    },
    {
      "inputs": [],
      "name": "getTriesLeft",
      "outputs": [
        {
          "internalType": "uint256",
          "name": "",
          "type": "uint256"
        }
      ],
      "stateMutability": "view",
      "type": "function",
      "constant": true
    },
    {
      "inputs": [],
      "name": "isGameActive",
      "outputs": [
        {
          "internalType": "bool",
          "name": "",
          "type": "bool"
        }
      ],
      "stateMutability": "view",
      "type": "function",
      "constant": true
    },
    {
      "inputs": [
        {
          "internalType": "string",
          "name": "guess",
          "type": "string"
        }
      ],
      "name": "guessWord",
      "outputs": [],
      "stateMutability": "nonpayable",
      "type": "function"
    },
    {
      "inputs": [],
      "name": "deposit",
      "outputs": [],
      "stateMutability": "payable",
      "type": "function",
      "payable": true
    },
    {
      "inputs": [],
      "name": "withdrawFees",
      "outputs": [],
      "stateMutability": "nonpayable",
      "type": "function"
    }
  ],
  "bytecode": "0x60806040526040518061064001604052806040518060400160405280600b81526020017f6578706c616e6174696f6e00000000000000000000000000000000000000000081525081526020016040518060400160405280600981526020017f7369676e6174757265000000000000000000000000000000000000000000000081525081526020016040518060400160405280600a81526020017f6465706172746d656e740000000000000000000000000000000000000000000081525081526020016040518060400160405280600a81526020017f6c6974657261747572650000000000000000000000000000000000000000000081525081526020016040518060400160405280600a81526020017f617373756d7074696f6e0000000000000000000000000000000000000000000081525081526020016040518060400160405280600981526020017f636f6d6d6974746565000000000000000000000000000000000000000000000081525081526020016040518060400160405280600981526020017f6368656d6973747279000000000000000000000000000000000000000000000081525081526020016040518060400160405280600c81526020017f6d616e756661637475726572000000000000000000000000000000000000000081525081526020016040518060400160405280600a81526020017f696e766573746d656e740000000000000000000000000000000000000000000081525081526020016040518060400160405280600b81526020017f63656c6562726174696f6e00000000000000000000000000000000000000000081525081526020016040518060400160405280600a81526020017f696d7072657373696f6e0000000000000000000000000000000000000000000081525081526020016040518060400160405280600981526020017f696e73706563746f72000000000000000000000000000000000000000000000081525081526020016040518060400160405280600a81526020017f646966666572656e63650000000000000000000000000000000000000000000081525081526020016040518060400160405280600c81526020017f726566726967657261746f72000000000000000000000000000000000000000081525081526020016040518060400160405280600a81526020017f72657374617572616e740000000000000000000000000000000000000000000081525081526020016040518060400160405280600981526020017f617474656e74696f6e000000000000000000000000000000000000000000000081525081526020016040518060400160405280600981526020017f636f6d6d756e697479000000000000000000000000000000000000000000000081525081526020016040518060400160405280600a81526020017f7068696c6f736f7068790000000000000000000000000000000000000000000081525081526020016040518060400160405280600a81526020017f696d706f7274616e63650000000000000000000000000000000000000000000081525081526020016040518060400160405280600981526020017f65636f6e6f6d696373000000000000000000000000000000000000000000000081525081526020016040518060400160405280600a81526020017f676f7665726e6d656e740000000000000000000000000000000000000000000081525081526020016040518060400160405280600981526020017f6d61726b6574696e67000000000000000000000000000000000000000000000081525081526020016040518060400160405280600a81526020017f656666696369656e63790000000000000000000000000000000000000000000081525081526020016040518060400160405280600a81526020017f666f756e646174696f6e0000000000000000000000000000000000000000000081525081526020016040518060400160405280600a81526020017f696e69746961746976650000000000000000000000000000000000000000000081525081526020016040518060400160405280600b81526020017f656e7669726f6e6d656e7400000000000000000000000000000000000000000081525081526020016040518060400160405280600c81526020017f646973747269627574696f6e000000000000000000000000000000000000000081525081526020016040518060400160405280600a81526020017f6578636974656d656e740000000000000000000000000000000000000000000081525081526020016040518060400160405280600981526020017f736563726574617279000000000000000000000000000000000000000000000081525081526020016040518060400160405280600b81526020017f74656d706572617475726500000000000000000000000000000000000000000081525081526020016040518060400160405280600a81526020017f7265766f6c7574696f6e0000000000000000000000000000000000000000000081525081526020016040518060400160405280600b81526020017f73757065726d61726b657400000000000000000000000000000000000000000081525081526020016040518060400160405280600a81526020017f65787072657373696f6e0000000000000000000000000000000000000000000081525081526020016040518060400160405280600a81526020017f70657263657074696f6e0000000000000000000000000000000000000000000081525081526020016040518060400160405280600b81526020017f6e65676f74696174696f6e00000000000000000000000000000000000000000081525081526020016040518060400160405280600c81526020017f696e646570656e64656e6365000000000000000000000000000000000000000081525081526020016040518060400160405280600981526020017f626f79667269656e64000000000000000000000000000000000000000000000081525081526020016040518060400160405280600b81526020017f6465736372697074696f6e00000000000000000000000000000000000000000081525081526020016040518060400160405280600981526020017f63726974696369736d000000000000000000000000000000000000000000000081525081526020016040518060400160405280600a81526020017f70657263656e746167650000000000000000000000000000000000000000000081525081526020016040518060400160405280600b81526020017f7265706c6163656d656e7400000000000000000000000000000000000000000081525081526020016040518060400160405280600b81526020017f636f6e73657175656e636500000000000000000000000000000000000000000081525081526020016040518060400160405280600a81526020017f61746d6f7370686572650000000000000000000000000000000000000000000081525081526020016040518060400160405280600a81526020017f7265666c656374696f6e0000000000000000000000000000000000000000000081525081526020016040518060400160405280600981526020017f636c617373726f6f6d000000000000000000000000000000000000000000000081525081526020016040518060400160405280600a81526020017f706f70756c6174696f6e0000000000000000000000000000000000000000000081525081526020016040518060400160405280600b81526020017f6d61696e74656e616e636500000000000000000000000000000000000000000081525081526020016040518060400160405280600a81526020017f706f7373657373696f6e0000000000000000000000000000000000000000000081525081526020016040518060400160405280600981526020017f646972656374696f6e000000000000000000000000000000000000000000000081525081526020016040518060400160405280600c81526020017f636f6e747269627574696f6e0000000000000000000000000000000000000000815250815250600190603262000ba692919062000c00565b50600a60025534801562000bb957600080fd5b50336000806101000a81548173ffffffffffffffffffffffffffffffffffffffff021916908373ffffffffffffffffffffffffffffffffffffffff1602179055506200104e565b82805482825590600052602060002090810192821562000c4d579160200282015b8281111562000c4c57825182908162000c3b919062000f67565b509160200191906001019062000c21565b5b50905062000c5c919062000c60565b5090565b5b8082111562000c84576000818162000c7a919062000c88565b5060010162000c61565b5090565b50805462000c969062000d56565b6000825580601f1062000caa575062000ccb565b601f01602090049060005260206000209081019062000cca919062000cce565b5b50565b5b8082111562000ce957600081600090555060010162000ccf565b5090565b600081519050919050565b7f4e487b7100000000000000000000000000000000000000000000000000000000600052604160045260246000fd5b7f4e487b7100000000000000000000000000000000000000000000000000000000600052602260045260246000fd5b6000600282049050600182168062000d6f57607f821691505b60208210810362000d855762000d8462000d27565b5b50919050565b60008190508160005260206000209050919050565b60006020601f8301049050919050565b600082821b905092915050565b60006008830262000def7fffffffffffffffffffffffffffffffffffffffffffffffffffffffffffffffff8262000db0565b62000dfb868362000db0565b95508019841693508086168417925050509392505050565b6000819050919050565b6000819050919050565b600062000e4862000e4262000e3c8462000e13565b62000e1d565b62000e13565b9050919050565b6000819050919050565b62000e648362000e27565b62000e7c62000e738262000e4f565b84845462000dbd565b825550505050565b600090565b62000e9362000e84565b62000ea081848462000e59565b505050565b5b8181101562000ec85762000ebc60008262000e89565b60018101905062000ea6565b5050565b601f82111562000f175762000ee18162000d8b565b62000eec8462000da0565b8101602085101562000efc578190505b62000f1462000f0b8562000da0565b83018262000ea5565b50505b505050565b600082821c905092915050565b600062000f3c6000198460080262000f1c565b1980831691505092915050565b600062000f57838362000f29565b9150826002028217905092915050565b62000f728262000ced565b67ffffffffffffffff81111562000f8e5762000f8d62000cf8565b5b62000f9a825462000d56565b62000fa782828562000ecc565b600060209050601f83116001811462000fdf576000841562000fca578287015190505b62000fd6858262000f49565b86555062001046565b601f19841662000fef8662000d8b565b60005b82811015620010195784890151825560018201915060208501945060208101905062000ff2565b8683101562001039578489015162001035601f89168262000f29565b8355505b6001600288020188555050505b505050505050565b611e26806200105e6000396000f3fe60806040526004361061009c5760003560e01c8063d0e30db011610064578063d0e30db014610162578063e5ed1d591461016c578063e68bd5f714610188578063eb87ed51146101b3578063f123a8aa146101dc578063f7a69a20146102075761009c565b80630c0ef2b0146100a1578063476343ee146100cc5780638da5cb5b146100e3578063922d572c1461010e578063a001ecdd14610137575b600080fd5b3480156100ad57600080fd5b506100b6610232565b6040516100c391906110ed565b60405180910390f35b3480156100d857600080fd5b506100e1610289565b005b3480156100ef57600080fd5b506100f8610380565b6040516101059190611149565b60405180910390f35b34801561011a57600080fd5b50610135600480360381019061013091906111d0565b6103a4565b005b34801561014357600080fd5b5061014c6106e3565b6040516101599190611216565b60405180910390f35b61016a6106e9565b005b6101866004803603810190610181919061125d565b6106eb565b005b34801561019457600080fd5b5061019d6109b9565b6040516101aa9190611216565b60405180910390f35b3480156101bf57600080fd5b506101da60048036038101906101d591906113d0565b610a65565b005b3480156101e857600080fd5b506101f1610b48565b6040516101fe9190611498565b60405180910390f35b34801561021357600080fd5b5061021c610e3c565b6040516102299190611216565b60405180910390f35b6000600360003373ffffffffffffffffffffffffffffffffffffffff1673ffffffffffffffffffffffffffffffffffffffff16815260200190815260200160002060040160009054906101000a900460ff16905090565b60008054906101000a900473ffffffffffffffffffffffffffffffffffffffff1673ffffffffffffffffffffffffffffffffffffffff163373ffffffffffffffffffffffffffffffffffffffff1614610317576040517f08c379a000000000000000000000000000000000000000000000000000000000815260040161030e90611506565b60405180910390fd5b60008054906101000a900473ffffffffffffffffffffffffffffffffffffffff1673ffffffffffffffffffffffffffffffffffffffff166108fc479081150290604051600060405180830381858888f1935050505015801561037d573d6000803e3d6000fd5b50565b60008054906101000a900473ffffffffffffffffffffffffffffffffffffffff1681565b6000600360003373ffffffffffffffffffffffffffffffffffffffff1673ffffffffffffffffffffffffffffffffffffffff16815260200190815260200160002090508060040160009054906101000a900460ff16610438576040517f08c379a000000000000000000000000000000000000000000000000000000000815260040161042f90611572565b60405180910390fd5b806002016000837effffffffffffffffffffffffffffffffffffffffffffffffffffffffffffff19167effffffffffffffffffffffffffffffffffffffffffffffffffffffffffffff1916815260200190815260200160002060009054906101000a900460ff16156104df576040517f08c379a00000000000000000000000000000000000000000000000000000000081526004016104d6906115de565b60405180910390fd5b6001816002016000847effffffffffffffffffffffffffffffffffffffffffffffffffffffffffffff19167effffffffffffffffffffffffffffffffffffffffffffffffffffffffffffff1916815260200190815260200160002060006101000a81548160ff0219169083151502179055506000805b8260000180546105649061162d565b905081101561063757837effffffffffffffffffffffffffffffffffffffffffffffffffffffffffffff1916836000018281546105a09061162d565b81106105af576105ae61165e565b5b8154600116156105ce5790600052602060002090602091828204019190065b9054901a7f0100000000000000000000000000000000000000000000000000000000000000027effffffffffffffffffffffffffffffffffffffffffffffffffffffffffffff1916036106245760019150610637565b808061062f906116bc565b915050610555565b508061065857816003016000815480929190610652906116bc565b91905055505b3373ffffffffffffffffffffffffffffffffffffffff167f4575799326763dc2109802fe85dae4bf4b13697aae0d98b0c37ba2e8c4bcf15e846040516020016106a19190611725565b604051602081830303815290604052836040516106bf929190611795565b60405180910390a260058260030154106106de576106dd6000610e41565b5b505050565b60025481565b565b80341461072d576040517f08c379a000000000000000000000000000000000000000000000000000000000815260040161072490611811565b60405180910390fd5b600360003373ffffffffffffffffffffffffffffffffffffffff1673ffffffffffffffffffffffffffffffffffffffff16815260200190815260200160002060040160009054906101000a900460ff16156107bd576040517f08c379a00000000000000000000000000000000000000000000000000000000081526004016107b49061187d565b60405180910390fd5b6000600360003373ffffffffffffffffffffffffffffffffffffffff1673ffffffffffffffffffffffffffffffffffffffff168152602001908152602001600020905061080981610fe5565b60006001805490504233604051602001610824929190611906565b6040516020818303038152906040528051906020012060001c6108479190611961565b905060006001828154811061085f5761085e61165e565b5b9060005260206000200180546108749061162d565b80601f01602080910402602001604051908101604052809291908181526020018280546108a09061162d565b80156108ed5780601f106108c2576101008083540402835291602001916108ed565b820191906000526020600020905b8154815290600101906020018083116108d057829003601f168201915b50505050509050808360000190816109059190611b3e565b50806040516020016109179190611c4c565b6040516020818303038152906040528051906020012083600101819055506000836003018190555060018360040160006101000a81548160ff0219169083151502179055508383600501819055503373ffffffffffffffffffffffffffffffffffffffff167fea32a03505fd9f04d664676d72295a86c5fb0465e69654751907ca305bc1d1c7856040516109ab9190611216565b60405180910390a250505050565b600080600360003373ffffffffffffffffffffffffffffffffffffffff1673ffffffffffffffffffffffffffffffffffffffff16815260200190815260200160002090508060040160009054906101000a900460ff16610a4e576040517f08c379a0000000000000000000000000000000000000000000000000000000008152600401610a4590611572565b60405180910390fd5b80600301546005610a5f9190611c63565b91505090565b6000600360003373ffffffffffffffffffffffffffffffffffffffff1673ffffffffffffffffffffffffffffffffffffffff16815260200190815260200160002090508060040160009054906101000a900460ff16610af9576040517f08c379a0000000000000000000000000000000000000000000000000000000008152600401610af090611572565b60405180910390fd5b806001015482604051602001610b0f9190611c4c565b6040516020818303038152906040528051906020012003610b3957610b346001610e41565b610b44565b610b436000610e41565b5b5050565b60606000600360003373ffffffffffffffffffffffffffffffffffffffff1673ffffffffffffffffffffffffffffffffffffffff16815260200190815260200160002090508060040160009054906101000a900460ff16610bde576040517f08c379a0000000000000000000000000000000000000000000000000000000008152600401610bd590611572565b60405180910390fd5b6000816000018054610bef9061162d565b80601f0160208091040260200160405190810160405280929190818152602001828054610c1b9061162d565b8015610c685780601f10610c3d57610100808354040283529160200191610c68565b820191906000526020600020905b815481529060010190602001808311610c4b57829003601f168201915b505050505090506000815167ffffffffffffffff811115610c8c57610c8b6112a5565b5b6040519080825280601f01601f191660200182016040528015610cbe5781602001600182028036833780820191505090505b50905060005b8251811015610e3257836002016000848381518110610ce657610ce561165e565b5b602001015160f81c60f81b7effffffffffffffffffffffffffffffffffffffffffffffffffffffffffffff19167effffffffffffffffffffffffffffffffffffffffffffffffffffffffffffff1916815260200190815260200160002060009054906101000a900460ff1615610dbb57828181518110610d6957610d6861165e565b5b602001015160f81c60f81b828281518110610d8757610d8661165e565b5b60200101907effffffffffffffffffffffffffffffffffffffffffffffffffffffffffffff1916908160001a905350610e1f565b7f5f00000000000000000000000000000000000000000000000000000000000000828281518110610def57610dee61165e565b5b60200101907effffffffffffffffffffffffffffffffffffffffffffffffffffffffffffff1916908160001a9053505b8080610e2a906116bc565b915050610cc4565b5080935050505090565b600581565b6000600360003373ffffffffffffffffffffffffffffffffffffffff1673ffffffffffffffffffffffffffffffffffffffff168152602001908152602001600020905060008160040160006101000a81548160ff0219169083151502179055508115610f9357600060646002546064610eba9190611c63565b8360050154610ec99190611c97565b610ed39190611cd9565b8260050154610ee29190611d0a565b905060003373ffffffffffffffffffffffffffffffffffffffff1682604051610f0a90611d6f565b60006040518083038185875af1925050503d8060008114610f47576040519150601f19603f3d011682016040523d82523d6000602084013e610f4c565b606091505b5050905080610f90576040517f08c379a0000000000000000000000000000000000000000000000000000000008152600401610f8790611dd0565b60405180910390fd5b50505b3373ffffffffffffffffffffffffffffffffffffffff167f963df1814dc0a9eba3e98b14f6c69874b207776f56f77eeb74cbae97ab29127a83604051610fd991906110ed565b60405180910390a25050565b60006040518060400160405280601a81526020017f6162636465666768696a6b6c6d6e6f707172737475767778797a000000000000815250905060005b81518110156110cd5760008360020160008484815181106110465761104561165e565b5b602001015160f81c60f81b7effffffffffffffffffffffffffffffffffffffffffffffffffffffffffffff19167effffffffffffffffffffffffffffffffffffffffffffffffffffffffffffff1916815260200190815260200160002060006101000a81548160ff02191690831515021790555080806110c5906116bc565b915050611022565b505050565b60008115159050919050565b6110e7816110d2565b82525050565b600060208201905061110260008301846110de565b92915050565b600073ffffffffffffffffffffffffffffffffffffffff82169050919050565b600061113382611108565b9050919050565b61114381611128565b82525050565b600060208201905061115e600083018461113a565b92915050565b6000604051905090565b600080fd5b600080fd5b60007fff0000000000000000000000000000000000000000000000000000000000000082169050919050565b6111ad81611178565b81146111b857600080fd5b50565b6000813590506111ca816111a4565b92915050565b6000602082840312156111e6576111e561116e565b5b60006111f4848285016111bb565b91505092915050565b6000819050919050565b611210816111fd565b82525050565b600060208201905061122b6000830184611207565b92915050565b61123a816111fd565b811461124557600080fd5b50565b60008135905061125781611231565b92915050565b6000602082840312156112735761127261116e565b5b600061128184828501611248565b91505092915050565b600080fd5b600080fd5b6000601f19601f8301169050919050565b7f4e487b7100000000000000000000000000000000000000000000000000000000600052604160045260246000fd5b6112dd82611294565b810181811067ffffffffffffffff821117156112fc576112fb6112a5565b5b80604052505050565b600061130f611164565b905061131b82826112d4565b919050565b600067ffffffffffffffff82111561133b5761133a6112a5565b5b61134482611294565b9050602081019050919050565b82818337600083830152505050565b600061137361136e84611320565b611305565b90508281526020810184848401111561138f5761138e61128f565b5b61139a848285611351565b509392505050565b600082601f8301126113b7576113b661128a565b5b81356113c7848260208601611360565b91505092915050565b6000602082840312156113e6576113e561116e565b5b600082013567ffffffffffffffff81111561140457611403611173565b5b611410848285016113a2565b91505092915050565b600081519050919050565b600082825260208201905092915050565b60005b83811015611453578082015181840152602081019050611438565b60008484015250505050565b600061146a82611419565b6114748185611424565b9350611484818560208601611435565b61148d81611294565b840191505092915050565b600060208201905081810360008301526114b2818461145f565b905092915050565b7f4f6e6c7920746865206f776e65722063616e2077697468647261772066656573600082015250565b60006114f0602083611424565b91506114fb826114ba565b602082019050919050565b6000602082019050818103600083015261151f816114e3565b9050919050565b7f4e6f206163746976652067616d65000000000000000000000000000000000000600082015250565b600061155c600e83611424565b915061156782611526565b602082019050919050565b6000602082019050818103600083015261158b8161154f565b9050919050565b7f4c657474657220616c7265616479206775657373656400000000000000000000600082015250565b60006115c8601683611424565b91506115d382611592565b602082019050919050565b600060208201905081810360008301526115f7816115bb565b9050919050565b7f4e487b7100000000000000000000000000000000000000000000000000000000600052602260045260246000fd5b6000600282049050600182168061164557607f821691505b602082108103611658576116576115fe565b5b50919050565b7f4e487b7100000000000000000000000000000000000000000000000000000000600052603260045260246000fd5b7f4e487b7100000000000000000000000000000000000000000000000000000000600052601160045260246000fd5b60006116c7826111fd565b91507fffffffffffffffffffffffffffffffffffffffffffffffffffffffffffffffff82036116f9576116f861168d565b5b600182019050919050565b6000819050919050565b61171f61171a82611178565b611704565b82525050565b6000611731828461170e565b60018201915081905092915050565b600081519050919050565b600082825260208201905092915050565b600061176782611740565b611771818561174b565b9350611781818560208601611435565b61178a81611294565b840191505092915050565b600060408201905081810360008301526117af818561175c565b90506117be60208301846110de565b9392505050565b7f5374616b6520616d6f756e74206e6f7420636f72726563740000000000000000600082015250565b60006117fb601883611424565b9150611806826117c5565b602082019050919050565b6000602082019050818103600083015261182a816117ee565b9050919050565b7f47616d6520616c726561647920696e2070726f67726573730000000000000000600082015250565b6000611867601883611424565b915061187282611831565b602082019050919050565b600060208201905081810360008301526118968161185a565b9050919050565b6000819050919050565b6118b86118b3826111fd565b61189d565b82525050565b60008160601b9050919050565b60006118d6826118be565b9050919050565b60006118e8826118cb565b9050919050565b6119006118fb82611128565b6118dd565b82525050565b600061191282856118a7565b60208201915061192282846118ef565b6014820191508190509392505050565b7f4e487b7100000000000000000000000000000000000000000000000000000000600052601260045260246000fd5b600061196c826111fd565b9150611977836111fd565b92508261198757611986611932565b5b828206905092915050565b60008190508160005260206000209050919050565b60006020601f8301049050919050565b600082821b905092915050565b6000600883026119f47fffffffffffffffffffffffffffffffffffffffffffffffffffffffffffffffff826119b7565b6119fe86836119b7565b95508019841693508086168417925050509392505050565b6000819050919050565b6000611a3b611a36611a31846111fd565b611a16565b6111fd565b9050919050565b6000819050919050565b611a5583611a20565b611a69611a6182611a42565b8484546119c4565b825550505050565b600090565b611a7e611a71565b611a89818484611a4c565b505050565b5b81811015611aad57611aa2600082611a76565b600181019050611a8f565b5050565b601f821115611af257611ac381611992565b611acc846119a7565b81016020851015611adb578190505b611aef611ae7856119a7565b830182611a8e565b50505b505050565b600082821c905092915050565b6000611b1560001984600802611af7565b1980831691505092915050565b6000611b2e8383611b04565b9150826002028217905092915050565b611b4782611419565b67ffffffffffffffff811115611b6057611b5f6112a5565b5b611b6a825461162d565b611b75828285611ab1565b600060209050601f831160018114611ba85760008415611b96578287015190505b611ba08582611b22565b865550611c08565b601f198416611bb686611992565b60005b82811015611bde57848901518255600182019150602085019450602081019050611bb9565b86831015611bfb5784890151611bf7601f891682611b04565b8355505b6001600288020188555050505b505050505050565b600081905092915050565b6000611c2682611419565b611c308185611c10565b9350611c40818560208601611435565b80840191505092915050565b6000611c588284611c1b565b915081905092915050565b6000611c6e826111fd565b9150611c79836111fd565b9250828203905081811115611c9157611c9061168d565b5b92915050565b6000611ca2826111fd565b9150611cad836111fd565b9250828202611cbb816111fd565b91508282048414831517611cd257611cd161168d565b5b5092915050565b6000611ce4826111fd565b9150611cef836111fd565b925082611cff57611cfe611932565b5b828204905092915050565b6000611d15826111fd565b9150611d20836111fd565b9250828201905080821115611d3857611d3761168d565b5b92915050565b600081905092915050565b50565b6000611d59600083611d3e565b9150611d6482611d49565b600082019050919050565b6000611d7a82611d4c565b9150819050919050565b7f4661696c656420746f2073656e64204574686572000000000000000000000000600082015250565b6000611dba601483611424565b9150611dc582611d84565b602082019050919050565b60006020820190508181036000830152611de981611dad565b905091905056fea26469706673582212209e60b37dfc633736691f6c8f3435359cc2a536775f1ac1f561e2d0e301e97bb964736f6c63430008110033",
  "immutableReferences": {},
  "source": "// SPDX-License-Identifier: MIT\npragma solidity ^0.8.0;\n\ncontract Hangman {\n\n  address public owner;\n\n  constructor() {\n    owner = msg.sender;\n  }\n\n  struct Game {\n    string word;\n    bytes32 hashedWord;\n    mapping(bytes1 => bool) guessedLetters;\n    uint256 wrongGuessCount;\n    bool isActive;\n    uint256 stake;\n  }\n\n  string[] private wordList = [\n    \"explanation\",\n    \"signature\",\n    \"department\",\n    \"literature\",\n    \"assumption\",\n    \"committee\",\n    \"chemistry\",\n    \"manufacturer\",\n    \"investment\",\n    \"celebration\",\n    \"impression\",\n    \"inspector\",\n    \"difference\",\n    \"refrigerator\",\n    \"restaurant\",\n    \"attention\",\n    \"community\",\n    \"philosophy\",\n    \"importance\",\n    \"economics\",\n    \"government\",\n    \"marketing\",\n    \"efficiency\",\n    \"foundation\",\n    \"initiative\",\n    \"environment\",\n    \"distribution\",\n    \"excitement\",\n    \"secretary\",\n    \"temperature\",\n    \"revolution\",\n    \"supermarket\",\n    \"expression\",\n    \"perception\",\n    \"negotiation\",\n    \"independence\",\n    \"boyfriend\",\n    \"description\",\n    \"criticism\",\n    \"percentage\",\n    \"replacement\",\n    \"consequence\",\n    \"atmosphere\",\n    \"reflection\",\n    \"classroom\",\n    \"population\",\n    \"maintenance\",\n    \"possession\",\n    \"direction\",\n    \"contribution\"\n  ];\n\n  uint256 public constant MAX_TRIES = 5;\n  uint256 public feePercentage = 10; // 10% fee\n  mapping(address => Game) private games;\n\n  // Event declarations\n  event GameStarted(address indexed player, uint256 stake);\n  event LetterGuessed(address indexed player, bytes letter, bool correct);\n  event GameOver(address indexed player, bool won);\n\n  function startGame(uint256 stake) public payable {\n    require(msg.value == stake, \"Stake amount not correct\");\n    require(!games[msg.sender].isActive, \"Game already in progress\");\n\n    Game storage game = games[msg.sender];\n\n    resetGuessedLetters(game);\n\n    uint256 randomIndex = uint256(keccak256(abi.encodePacked(block.timestamp, msg.sender))) % wordList.length;\n    string memory randomWord = wordList[randomIndex];\n\n    game.word = randomWord;\n    game.hashedWord = keccak256(abi.encodePacked(randomWord));\n    game.wrongGuessCount = 0;\n    game.isActive = true;\n    game.stake = stake;\n\n    emit GameStarted(msg.sender, stake);\n  }\n\n\n  function guessLetter(bytes1 letter) public {\n    Game storage game = games[msg.sender];\n    require(game.isActive, \"No active game\");\n    require(!game.guessedLetters[letter], \"Letter already guessed\");\n\n    game.guessedLetters[letter] = true;\n\n    // Check if the guessed letter is in the word\n    bool isCorrect = false;\n    for (uint i = 0; i < bytes(game.word).length; i++) {\n      if (bytes(game.word)[i] == letter) {\n        isCorrect = true;\n        break;\n      }\n    }\n\n    if (!isCorrect) {\n      game.wrongGuessCount++;\n    }\n\n    emit LetterGuessed(msg.sender, bytes(abi.encodePacked(letter)), isCorrect);\n\n    if (game.wrongGuessCount >= MAX_TRIES) {\n      endGame(false);\n    }\n  }\n\n  function getCurrentWordState() public view returns (string memory) {\n    Game storage game = games[msg.sender];\n    require(game.isActive, \"No active game\");\n\n    bytes memory wordBytes = bytes(game.word);\n    bytes memory currentState = new bytes(wordBytes.length);\n\n    for (uint i = 0; i < wordBytes.length; i++) {\n      if (game.guessedLetters[wordBytes[i]]) {\n        currentState[i] = wordBytes[i];\n      } else {\n        currentState[i] = \"_\";\n      }\n    }\n\n    return string(currentState);\n  }\n\n  function getTriesLeft() public view returns (uint256) {\n    Game storage game = games[msg.sender];\n    require(game.isActive, \"No active game\");\n    return MAX_TRIES - game.wrongGuessCount;\n  }\n\n  function isGameActive() public view returns (bool) {\n    return games[msg.sender].isActive;\n  }\n\n\n  function guessWord(string memory guess) public {\n    Game storage game = games[msg.sender];\n    require(game.isActive, \"No active game\");\n    \n    if (keccak256(abi.encodePacked(guess)) == game.hashedWord) {\n      endGame(true);\n    } else {\n      endGame(false);\n    }\n  }\n\n  function endGame(bool won) internal {\n    Game storage game = games[msg.sender];\n    game.isActive = false;\n\n    if (won) {\n      uint256 reward = game.stake + ((game.stake * (100 - feePercentage)) / 100);\n      (bool sent, ) = payable(msg.sender).call{value: reward}(\"\");\n      require(sent, \"Failed to send Ether\");\n    }\n\n    emit GameOver(msg.sender, won);\n  }\n\n  function resetGuessedLetters(Game storage game) private {\n    bytes memory alphabet = \"abcdefghijklmnopqrstuvwxyz\";\n    for (uint i = 0; i < alphabet.length; i++) {\n      game.guessedLetters[bytes1(alphabet[i])] = false;\n    }\n  }\n\n\n  function deposit() public payable {\n    // Funds will be stored in the contract\n  }\n\n  function withdrawFees() public {\n    require(msg.sender == owner, \"Only the owner can withdraw fees\");\n    payable(owner).transfer(address(this).balance);\n  }\n}\n",
  "sourcePath": "D:\\Projects\\crypto\\smartcontracts\\hangman\\contracts\\Hangman.sol",
  "compiler": {
    "name": "solc",
    "version": "0.8.17+commit.8df45f5f.Emscripten.clang"
  },
  "schemaVersion": "3.4.16",
  "updatedAt": "2023-12-13T23:37:50.162Z",
  "networkType": "ethereum",
  "devdoc": {
    "kind": "dev",
    "methods": {},
    "version": 1
  },
  "userdoc": {
    "kind": "user",
    "methods": {},
    "version": 1
  }
}